:020000040800F2
:10000000200A00205D4B0008C1490008C5490008CE
:10001000C7490008C9490008CB4900080000000092
:10002000000000000000000000000000CD490008B2
:10003000CF49000800000000D1490008D34900085A
:10004000874B00088B4B00088F4B0008934B000830
:10005000974B00089B4B00089F4B0008A34B0008E0
:10006000A74B0008AB4B0008AF4B0008B34B000890
:10007000D7490008B74B0008BB4B0008BF4B00082E
:10008000C34B0008C74B0008CB4B0008CF4B000800
:10009000D34B0008D74B0008DB4B0008DF4B0008B0
:1000A000E34B0008E74B0008EB4B0008EF4B000860
:1000B000DD490008E3490008F34B0008F74B00084E
:1000C000FB4B0008FF4B0008034C0008074C0008DE
:1000D0000B4C00080F4C0008134C0008174C00088C
:1000E0001B4C00081F4C0008234C0008274C00083C
:1000F0002B4C00082F4C0008334C0008374C0008EC
:100100003B4C00083F4C0008434C0008474C00089B
:100110004B4C00084F4C0008534C0008E9490008BC
:10012000EF490008574C0008F54900085B4C0008EF
:100130005F4C0008634C0008674C00086B4C0008DB
:100140006F4C0008734C0008774C00087B4C00088B
:100150007F4C0008834C0008874C00088B4C00083B
:100160008F4C0008934C0008974C00089B4C0008EB
:100170009F4C0008A34C0008A74C0008000000009A
:10018000AB4C0008AF4C00082DE9F84F74A7A2B0A3
:10019000D7E90045CDE900452C9EDFF8307C04917D
:1001A0008DF843605FF000016FA40D9112944FF041
:1001B000FF368246904699460FE0C3462C461BF810
:1001C000011B0498D0470028049000F0B2800D98DD
:1001D000401C641E0D90F2D1A84498F80000252818
:1001E00007D100210791089109910A910B910C9177
:1001F0000DE06A463146404600F0D0FF050001D1CF
:100200000D98B5E0D9D50125E6E741F0010118F8D0
:10021000010F2028F9D023280CD02B2804D02D281A
:1002200005D0302809D086E041F00201EFE741F027
:100230000401ECE741F00801E9E741F01001E6E7CD
:1002400000200F900AE00F98B84205DA00EB800317
:1002500002EB4302303A0F9208F1010898F80020AF
:10026000A2F130000A28EED398F800002E2818BF1B
:100270000E9629D118F8010F2A280BD1D9F80000C1
:10028000C9F8000008F1010850F8042BC9F8000073
:100290000E9219E02D280CBF18F8010B0020002247
:1002A0000E920BE040B90E9ABA4205DA02EB8204D4
:1002B00003EB4403303B0E9308F1010898F800303B
:1002C000A3F130020A2AEDD3ADF84010129898F845
:1002D000001000F06DFF08B118F8010B8DF8420016
:1002E0009DF84200682804BF98F80010682903D1DF
:1002F00062208DF8420008E06C2804BF98F80000E6
:100300006C2804D171218DF8421008F1010813A85E
:1003100006904A4618F8013B02A9504600F068F8DA
:1003200038B913AA02A9504600F0CAF900287FF58F
:1003300054AF30461CE02A2882D1D9F80020C9F8F1
:10034000002052F8040BC9F8002000280F9003D5B4
:1003500040420F9041F0040108F1010884E70000D9
:100360000000000000000000686A6C747A4C000015
:1003700023B0BDE8F08F622820D0682811D06A2809
:1003800003D06C2827D0712825D10868C01D20F023
:1003900007000860D0E900230830086019461046BD
:1003A0007047002A0A680A60106803D0121D0A60AC
:1003B00000B217E0121D0A6080B217E0002A0A6836
:1003C0000A60106803D0121D0A6040B20AE0121DD4
:1003D0000A60C0B20AE0002A0A680A60106803D006
:1003E000121D0A60C1177047121D0A600021704774
:1003F0007CB50D4611461C462E69B4F1250200F06D
:100400004D811C3A00F08680121F022A40F2828041
:100410000E3A00F00781521F5AD0093A7AD0921E44
:1004200016D0521E35D0521E022A73D9121F30D058
:10043000521F00F09A80521E4AD0521E00F0E480F3
:10044000D21E00F0FD80921E42D0D21E40D02BE181
:1004500095F83A206C2A09D06869421C6A610A68DA
:100460000A6052F8043B0A60335427E10A680A60C4
:1004700052F8043B0A600021009301914FF0FF32D3
:100480002A6329466A4600F096F9002840F1168151
:1004900001E195F83A000122FFF76DFFC5E900017F
:1004A0000023994204DA6869411C69612D210DE03D
:1004B000288F810704D56869411C69612B2105E0FB
:1004C000C00722D56869411C6961202131541CE0B4
:1004D00095F83A000022FFF74EFFC5E9000195F8B4
:1004E0003800010711D5D5E900230020834208BF59
:1004F00082420AD044F02000782806D16869302171
:100500003154401C411C69613454214668693044AF
:10051000E86083E00868C01D20F007000860D0E9AB
:10052000002308300860C5E90023D5E90001C80FA1
:1005300004D06869411C69612D210DE0288F810775
:1005400004D56869411C69612B2105E0C00704D509
:100550006869411C69612021315468693044E86050
:100560002146284600F032FAA8E005F13A02507818
:1005700020B14FF0FF340FF6243070E0107862287D
:1005800008D0682824D06A2812D06C282ED0712870
:100590000ED02BE00A680A6052F8040B0A6020B9FA
:1005A0004FF0FF340FF60C3059E0E96A017085E036
:1005B0000A680A6052F8040B0A6020B94FF0FF3451
:1005C0000FF6F0204BE0EA6AD317C0E9002375E08C
:1005D0000A680A6052F8040B0A6020B94FF0FF3431
:1005E0000FF6D0203BE0E96A018067E00A680A6004
:1005F00052F8040B0A6020B94FF0FF340FF6B42014
:100600002DE0E96A016059E00A680A6052F8040BBB
:100610000A600021C5E90001EE607821284600F05B
:1006200029F94BE06C2285F83A200B680B6053F8EF
:10063000042B0B6052BB4FF0FF340FF6AC200EE0E2
:1006400095F83A206C2AF0D00868086050F8044BFE
:100650000860EC603CB94FF0FF340FF6702000F0FA
:10066000B3FD201A76BD2E6B002E04D5204600F077
:10067000CBFD044608E032460021204600F0E0FDB4
:10068000002814BF041B3446AC6117E0294600F073
:1006900092F8002812D54FF0FF3076BD6869411CF2
:1006A00069612521315409E06969481C6861252286
:1006B0007254210002D0411C69613454002076BD7F
:1006C0002DE9F0410E460546716B7069B46A091A4E
:1006D000306A091AB069091A706A091AF069091AA8
:1006E00096F838000C1B410790460DD4002C0BDD0A
:1006F0002746B0682021A8470028B06057D0F06A8C
:10070000401C7F1EF062F4D1736942463146284690
:1007100000F0ACFC00284AD1376A002F0ADDB0682F
:100720003021A8470028B06041D0F06A401C7F1EED
:10073000F062F4D1B369F2683146284600F096FCC5
:10074000A8BB776A002F09DDB0683021A847B060E8
:1007500068B3F06A401C7F1EF062F5D1F068B169A1
:10076000F36942183146284600F080FCF8B9B76AB0
:10077000002F09DDB0683021A847B060B8B1F06A39
:10078000401C7F1EF062F5D196F8380041070BD56A
:10079000002C09DDB0682021A847B06038B1F06AAC
:1007A000401C641EF062F5D10020BDE8F0814FF0DE
:1007B000FF30BDE8F0812DE9F8470D46A3B02F6B5F
:1007C000002F8146904648BF6FF0004700F064FD5F
:1007D000696B40180FF62C118128D1E90023CDE96F
:1007E000012328BF4FF0FF303ED20024002F2FDD21
:1007F000D8F8001001AA684600F0D2FC0646002E88
:1008000035D4D8F8000008B9761E30D4B7421FDBC3
:100810006869301881280AD30020686303AA294632
:100820004846FFF74DFF040012D40020686103A87A
:10083000D5F814A032466946504400F033FDB24466
:10084000C5F814A058F8040B002818BFBF1BCDD161
:100850002CB903AA29464846FFF732FF044614B9CB
:10086000002068616863204624B0BDE8F0874FF03F
:10087000FF34F8E72DE9FC4707468A463E69BAF19E
:100880006F0F08BF082405D04AF02001782914BF53
:100890000A2410243C25D7E90023BAF1640F18BFBD
:1008A000BAF1690F9046994606D100218B4203DACE
:1008B000D8F1000869EB49090020814508BF80454F
:1008C0001FD1386BE8B9082C4CD197F838000107D4
:1008D00048D530203B2586F83B0043E000280ED564
:1008E00097F8380000F01400102808D17A6B786966
:1008F000121A386A121A511A0029C8BF3962BDE8A3
:10090000F3878DF800A0404649462246E31700F0E1
:100910001DFD3032D0B26D1E3A28019504DB9DF8E2
:100920000000A0F151018A187255404649462246FE
:10093000E31700F00BFD804689460020814508BF83
:10094000804503D0F86871198842DCD3082C09D19E
:1009500097F83800010705D5715D302902D06D1E6A
:1009600030207055C5F13C01B9617019F860386BE1
:100970008142B3DA411A39624FF6EF70398F014084
:100980003987BDE8F3872DE9D04306460F46144664
:100990004FF00008DFF8389412E0E00707D5424630
:1009A0004B463046394600F0E9FD06460F464046C4
:1009B000494642464B4600F0E1FD641080468946B8
:1009C000002CEAD130463946BDE8D0832DE9F34FFB
:1009D000054641F020048DB0D5E90089612C02AEB6
:1009E00009D0286B002848BF062003D408BF672C15
:1009F00001D101202863D5E9002358004015401C8F
:100A00000ED119030CD00320A8619DF8380061387D
:100A10001A2802D20FF2F46111E00FF2F4610EE035
:100A200058004015401C0FD119030DD10320A861B7
:100A30009DF8380061381A2814D30FF2DC61E86899
:100A4000032200F02FFCD3E1194621F00043B3F557
:100A5000801F10460DD20027BB4208BFBA42019743
:100A600003D111E00FF2AC61E9E701AA00F058FEF2
:100A70000AE0DFF8607307EB1352DFF85C33019292
:100A80001940DFF858331943C5E90001612C0ED134
:100A9000E86830210170811CE9609DF838106129F7
:100AA0000CBF7821582141706869801C6861D5E9C4
:100AB00000AB2BF0004300202AF00002834204BF69
:100AC0008242002300F05A81612C40F0A980286BFB
:100AD00000284CBF2120401C00904046009F7F1CF6
:100AE00049460022002300F053FED94601988DF8B4
:100AF000082038BF89F00049001F0190002FD04620
:100B00000DF1090040F3498140F2FF71DFF8D0B2E6
:100B10000C910646404649460022002300F050FE54
:100B200080F03A814800400D00F11C0210D0002AEC
:100B30000EDD0C98824205DB09F0004040EA0B0113
:100B4000002013E0A448084040EA025140460DE06E
:100B500029F00043002028F00002834208BF8242AF
:100B60000FBF40461C22404600F042FE80468946A8
:100B700000F0DCFEFF1F002F044609DD00F0F4FE4C
:100B800002460B464046494600F000FF8046894633
:100B9000F01D072104E004F00F0200F8012D2411DC
:100BA000002C01DD491EF6D5491E5CBF002200F86D
:100BB000012DF9D5ECE00020194602AA0A4400E014
:100BC0005B1E12F80149491E8442F9D00F2804D156
:100BD0000DF10900425C521C4254002904D50198D1
:100BE000001D02AE5B1C0190591E12D49DF8380006
:100BF0007218147804F130085FFA88F4392CC4BFF5
:100C0000A0F13A04A044491E02F80189F1D58DF8FB
:100C10003800286B002840F1B080591E2963ACE0F1
:100C2000404649460022002300F0B2FD019938BF3A
:100C300089F0004947F2975041436A4A91FBF2F22A
:100C40000192D2F1070204DD40464946FFF79BFEC0
:100C50000AE0524200206449FFF795FE02460B4627
:100C60004046494600F004FF8046662C286BDFF8BA
:100C70007CB106BF019F0A3706273F18142FC8BF53
:100C8000142730208DF8080089460DF1090000E096
:100C90003046002F34DD06464046494601F00CF848
:100CA00001460A4606F1080304200A26B2FBF6F6BE
:100CB00006EB860EA2EB4E02303203F8012C0A221C
:100CC000B6FBF2F202EB820EA6EB4E063036401E69
:100CD00003F8026DE9D1083F002F03F10806D7DDC4
:100CE000084600F0FDFF02460B464046494600F02C
:100CF0004DFE00225B4600F041FC80468946CBE772
:100D00000DF10901401A0DF1090604E00199491E8F
:100D1000401E0191761C31783029F7D0662C02D123
:100D20000199491C03E0652C0CBF012100212B6BAC
:100D3000CB189842B8BF431E002B1ED4834204DA5E
:100D4000F05C3528A8BF392000DA30201946721E21
:100D500002EB010800E05B1E18F80199491E81456D
:100D6000F9D0392802D1705C401C7054002904D598
:100D70000198401C16465B1C0190019800B200903F
:100D80001BB29DF838103246284600F035F82FE0A7
:100D9000C61D002F3FF7BEAE30460DF10901401AC7
:100DA000009903468842C8BF0B46002B0DF1090687
:100DB0003FF52FAF8342BFF6FEAE0DF10900C05CD8
:100DC00007287FF7F8AE0F20F6E60000CBCCCC0C5E
:100DD0000000244002FCFFFFFFFF0F800000E03F07
:100DE0000000F07FA08601000000F03F84D797410B
:100DF0000FB0BDE8F08F00002DE9F84783B006463C
:100E00008A461746984600F0CDF9B8F1000F406ABF
:100E1000356B90F8009002DC4FF00108BFA7BDF9D8
:100E200030404AF02000662808BF641C15D06728AF
:100E300040F0848014F1040FC0F28680AC4280F24E
:100E4000838096F83800641C010702D4A845B8BF17
:100E5000454620B22D1A48BF00250FFA84FAF068E3
:100E6000B169BAF1000F25DC4A1C30234354002D30
:100E700003DC96F83800010703D5F06800F802900B
:100E8000521C15EB0A0FB8BF6C4220B24419414204
:100E90004445B8BFA046B26171620FFA88F5F561AA
:100EA000F068B3692A463946184400F0FBF9641B20
:100EB000B462C4E022B29045084417DA424639468B
:100EC00000F0F0F9B0694044B061AAEB0801002DD0
:100ED000716203DC96F838100A0705D5F16801F84D
:100EE0000090F069401CF061B562A8E0394600F05E
:100EF000D9F9B069002D5044A8EB040803DC96F83A
:100F000038100A0703D5F16801F80090401CB06161
:100F10000FFA88F08542F068B369B8BFA8460FFAA7
:100F200088F207EB0A01184400F0BCF9B0690FFA27
:100F300088F10844B061681A706280E0BAF1610F0C
:100F400014D14FF0700A16E0A84504DA96F838106C
:100F50000A0758BF45466D1E48BF0025BAF1670F06
:100F600014BF4FF0450A4FF0650A04E0BAF1410F93
:100F700008BF4FF0500AB169F368481CB061002DFA
:100F800017F8012B5A5403DC96F838100A071BD5C2
:100F9000F168431CB36101F80090002D14DDA8F145
:100FA00001080FFA88F08542F068B8BFA8460FFA2A
:100FB00088F23946184400F075F9B0690FFA88F1E3
:100FC00008446D1AB0617562F068B1690844002C7C
:100FD00080F800A003D42B214170811C03E02D2157
:100FE00041706442811C00206A460AE023460A24BC
:100FF00093FBF4F404EB8405A3EB450302F8013BF7
:10100000401C24B2002CF1DC012806DC4AF020024E
:10101000652A04BF302201F8012B48B9302001F8BD
:10102000010B07E0401E1DF80020303201F8012BB3
:101030000028F7DCF068B2691044091AF16196F8EB
:10104000380000F0140010280DD17169B069411802
:10105000706A4118F0694118B06A4118706B81429A
:10106000BCBF411A316204B0BDE8F087F8B505464F
:101070000E4617461C46002074B117F8011BB068D5
:10108000A847B06030B1F06A401CF0620020641ED6
:10109000F3D1F2BD4FF0FF30F2BD00007072696E07
:1010A00074665F733A20256E20646973616C6C6F9F
:1010B000776564007072696E74663A2062616420BC
:1010C000256E20617267756D656E74007072696E51
:1010D00074665F733A2062616420257320617267D1
:1010E000756D656E740000007072696E74665F7372
:1010F0003A2062616420256C7320617267756D65AA
:101100006E74000000000000000000006E616E00C0
:101110004E414E00696E6600494E46003000B1F502
:10112000807F02D34FF0FF3070470170012070477D
:101130000078401E8041C043C00F70471A48704776
:1011400030B45368D418042B09DA41B1057804F897
:10115000015B10F8015B15B15B1C491EF3E753609E
:1011600030BC704738B514461D4661B1FFF7E8FF43
:1011700061686A6B204690476FF00102811A02D0C5
:10118000491E03D005E06FF0010032BD4FF0FF3083
:1011900032BD0021616032BDDA6B1047024BE1E7DE
:1011A000014BF9E70148704748000020100000207B
:1011B0000278C9B28A421AB11CBF10F8012FF9E7B0
:1011C00018BF00207047000080B500B906A005498F
:1011D0000B681BB122220021984701E000F08DFD31
:1011E000222002BD18060020636F6E73747261695D
:1011F0006E742068616E646C65723A20626164206E
:101200006D6573736167650000F10103810704D0A8
:1012100010F8011B89B18107FAD10268B2F10131DE
:10122000914311F0803F04BF50F8042FF6E710F807
:10123000011B11B110F8011BFBE7C01A7047000039
:10124000C9B2830706D0521E22D310F8013B99423F
:10125000F7D11FE0083A13D302F1040241EA012159
:1012600041EA014150F8043B121F21BF4B40A3F15A
:10127000013C2CEA030C1CF0803FF3D0C9B2001FE4
:10128000083210F8013B521E28BF91EA030FF8D82C
:1012900018BF0120401E704780B5FFF74FFF006C5C
:1012A00002BD000062B38B0708D0521E11F8013B4B
:1012B00000F8013B00F024808B07F6D1830740F053
:1012C000208000BF103A07D330B4B1E83810103A8C
:1012D000A0E83810F9D230BC530724BFB1E8081099
:1012E000A0E8081044BF51F8043B40F8043BD20783
:1012F00024BF31F8022B20F8022B44BF0B78037077
:101300007047121F17D35B0009D151F8043B20F836
:10131000023B1B0C121F20F8023BF6D20BE051F8E7
:10132000043B00F8013B1B0A20F8023B1B0C121F78
:1013300000F8013BF3D238BF121D521E24BF11F832
:10134000013B00F8013BF8D870470000B3BBD9B1AE
:10135000B2F5803F7DD2022A1ED98C46B1FBF2F154
:1013600002FB11C31B0443EA1043B3FBF2FC02FB74
:101370001C3380B240EA0343B3FBF2F002FB1032AD
:1013800040EA0C4000237047022A05D98446B0FB8E
:10139000F2F002FB10C270474AB105D100F0010221
:1013A00049085FEA3000704700220023704700F0D0
:1013B000A7BC0B000200002100207047904271EB97
:1013C000030CF6D3B3F5803F2FD2F0B5B3FA83F711
:1013D000B1FA81F4A7F10F0E3D1B5340CEF1200668
:1013E00002FA0EF2F3415340B5F10F0746D80F3C15
:1013F0002C444140C4F12006A040F1414140B1FBE2
:10140000F3F603FB1611A2FB0645001BA94102D20D
:10141000761E8018594180EA010221FA0EF362FA21
:101420000EF200215A403046F0BD30B4B1FBF3FC5F
:1014300003FB1C11A2FB0C45001BA94103D2ACF11C
:10144000010C8018594130BC02460B466046002111
:101450007047B2F1807F65D3F0B5B2FA82F7B1FA86
:1014600081F4C7F10F063D1B22FA06F307F1110EB6
:10147000F24120355A40B5F10F07B8D94140C4F1C7
:101480002006A040F1414140B1FBF3FC03FB1C11DD
:10149000A2FB0C45001BA94103D2BCF1010C801832
:1014A00059410F2F12D30F3FC90341EA5041B1FBFD
:1014B000F3F603FB1611A2FB0645D4EBC030A9419D
:1014C00002D2761E8018594146EACC3C07B341400F
:1014D000C7F12006B840F1414140B1FBF3F603FBF0
:1014E0001611A2FB0645001BA94102D2761E8018E8
:1014F000594180EA010221FA0EF3C7F1200462FA91
:101500000EF20CFA07F05A402CFA04F13043F0BD09
:1015100080EA010221FA0EF3002162FA0EF260461F
:101520005A40F0BD8C46B1FBF2F102FB11C31B0225
:1015300043EA1063B3FBF2FC02FB1C331B024CEAD0
:10154000002043EA1063B3FBF2FC02FB1C331B02D6
:101550004CEA002043EA1063B3FBF2FC02FB1C33AD
:101560001B024CEA002043EA1063B3FBF2FC02FBCF
:101570001C324CEA0020002370470000B0B581EA1D
:10158000030C0CF0004C40F2FF7515EA11541DBF1E
:1015900015EA1357AC42AF4239E0E41923EA455348
:1015A00043F48013C90241F0004141EA505EC70292
:1015B0001100A7FB020200284FF00000EEFB012003
:1015C0004FF00001E3FB072118BF42F00102401871
:1015D00000214941E3FB0E01A4F580640F0302D210
:1015E00052004041494154F101046CDD470872F159
:1015F000004250F1000051EB0451A1F580115CBF95
:1016000041EA0C01B0BD4CEA05510020B0BD05EA2D
:101610001357AC4214BFAF4241E050EA410E1CBF29
:1016200052EA430E02E061460020B0BD24423C4431
:101630001BD15FEA070EF6D0090302BF0146002066
:10164000AEF1140EB1FA81F7AEEB070401FA07FE12
:101650000C37C7F1200100FA07F7C8404EEA000E28
:1016600023EA455343F48013A2E733F00043B3FA6F
:1016700083F704BFB2FA82FE77440B3FE41BB7F155
:10168000200E2FBF02FA0EF3BB40C7F1200E22FA44
:101690000EFE38BF43EA0E03BA40641C82E750EAEC
:1016A000410E14BF52EA430E6FF000014FF40017D1
:1016B00017EB430F8ABF194617EB410FB5E74CEA0A
:1016C00005510020B0BDD4F10104B4F120070FDAB8
:1016D000C4F12007520828BF42F0010210FA07F5B2
:1016E00001FA07F7E1BF2A43E0403843E1400FE049
:1016F000352C98DCC7F1200452EA400220FA07F2A8
:1017000018BF42F0010231FA07F0A1400A4300215C
:1017100072F1004250F1000051EB0C01B0BD00002D
:1017200010B5144600F002F8226010BDC1F30A5350
:1017300043B14A0012F5001F28D2A3F2FE32A1EBFA
:101740000251704750EA410C20D001F0004C31EAC0
:101750000C01B1FA81F204BFB0FA80F3D2180B3A4F
:10176000B2F120032CBF00FA03F1914041EA0C01D1
:101770003EBFC2F1200C20FA0CF3194390405242B4
:1017800040F2FD33D21A01EB03517047002270473B
:101790004FF4001C1CEB410F94BF1CEB430F09E0FE
:1017A00041EA030C50EA4C0C52EA0C0C03D2994269
:1017B00008BF9042704714BF8B42824270470000BE
:1017C0004FF4001C1CEB410F94BF1CEB430F09E0CE
:1017D00041EA030C50EA4C0C52EA0C0C03D28B4247
:1017E00008BF8242704714BF994290427047000080
:1017F000124254D440F2FF7C1CEA11530FD06345CF
:1018000031D09B1863453CBF01EB0251704701F09A
:10181000004141EA0C510020AFF30080704750EACC
:10182000410320D001F0004C91EA0C011CD0B1FA28
:1018300081F30B3B9A420DD9D21A994051EA0C011F
:10184000C3F1200C20FA0CFC61449840531C40F278
:10185000FF7CD7E7914041EA0C01C2F1200C20FA4D
:101860000CF3194390407047B0FA80F31533202BE6
:10187000E0D3202AEED3203A203B9A4209D9D21A4B
:1018800000FA03F141EA0C010020531C40F2FF7CF6
:10189000B8E700FA02F141EA0C0100207047524219
:1018A00040F2FF7C1CEA11530DD06345DBD0B2EB54
:1018B000030C3CBFA1EB025170470CF1010221EA7D
:1018C000035141F4801150EA410CCCD001F0004C9E
:1018D000352A27DC30B481EA0C01B2F1200309DAA1
:1018E000C2F12003044601FA03F5D0402843D14059
:1018F0009C400CE0C3F12002450020FA03F418BF1D
:1019000044F0010421FA03F091400C43002174F1EA
:10191000004550F1000051EB0C01244230BC7FF433
:101920007BAF70476146002076E70000C1F30A53A1
:1019300040F2FE329B1A14DDD3F120034FEAE1722C
:1019400008DDC90241EA505141F00040D8408018FA
:101950005040704703F2E13010B1D24382F00040B2
:101960007047002070470000C11768B14840401A16
:10197000B0FA80F29040D21CC907C2F5846241EAF5
:10198000025202EBD02140057047000070B44FF0C6
:10199000004591EA030F40F1B5816B40841A71EB69
:1019A000030603D2001BB141121973414FF4001C0E
:1019B0001CEB410F34BF7CEB430442E00C0DA4EB65
:1019C0001356352E4FDC45EAC323DB0A45EAC12115
:1019D000C912B6F120050DDD63FA05F6EB4086EA83
:1019E0000305124218BF45F00105C01851F100016E
:1019F0000CD213E062FA06F5F2405540F3415A402A
:101A0000B340F3405A408018594107D349085FEA70
:101A100030005FEA350528BF45F0010501F580116A
:101A2000420875F1004250F1000041EB04514E00B4
:101A300016F5001F70BC38BF70470020090D09055E
:101A400070471CEB410F10D252EA43060BD0BCEB9F
:101A5000410F05D80C0DAB43661E342EB6DD02E0F7
:101A6000AB438018594170BC704770BC7047000090
:101A7000F0B540F2FF7581EA030C0CF0004C15EA5A
:101A800011541DBF15EA1357AC42AF42E5E0BC410B
:101A9000C1F31301C3F31303801A994143F4801374
:101AA00004D2641E4000494180185941C90241EAEC
:101AB0005051B1FBF3F603FB1611A2FB0675D7EBF1
:101AC000C020A94102D2761E80185941C90241EABC
:101AD0005051B1FBF3FE03FB1E11A2FB0E75D7EBB9
:101AE000C020A94103D2AEF1010E801859418902EC
:101AF00041EA9051760546EA8E2EB1FBF3F603FBE0
:101B00001611A2FB0675D7EB8020A94102D2761EE2
:101B100080185941C90241EA50514EEA060EB1FB04
:101B2000F3F603FB1611A2FB0675D7EBC020A94103
:101B300002D2761E80185941C90241EA5051B1FBC8
:101B4000F3F703FB1711A2FB0735D3EBC020A94124
:101B500067F100070CBF004247F0010766F3D52785
:101B60004FEA1E31B80814F5806412DDBD0775F127
:101B7000004250EB0E5051EB045111F5801F5CBF39
:101B800041EA0C01F0BD4CF07F6141F0E0410020E2
:101B9000F0BDBD076D0840EA0E5041F48011D4F14C
:101BA0000104B4F120060ADAC4F120060200E04084
:101BB00001FA06F3E1401843B24015430EE0342C1D
:101BC00013DCC6F1200445EA40056D0820FA06F250
:101BD000154321FA06F0A1400D43002175F10042A2
:101BE00050F1000051EB0C01F0BD00205FEA0C0148
:101BF000F0BDCFB992185B41B3FA83F704BFB2FAD4
:101C000082F6BF190B3FB7F120062FBF02FA06F389
:101C1000BB40C7F1200622FA06F638BF3343BA406C
:101C20001CB1E419641E33E77F4231F00041B1FA80
:101C300081F404BFB0FA80F6A4190B3CB4F120067D
:101C40002FBF00FA06F1A140C4F1200620FA06F6E3
:101C500038BF3143A0403C1B1AE7AC421ABF05EA2B
:101C60001357AF4212E050EA41061CBF52EA430646
:101C7000BFE750EA4107304661461CBF41EA0551C3
:101C8000F0BD52EA430C08BFC143F0BD00204FF441
:101C9000001616EB410F98BF16EB430F08BF16EB6B
:101CA000410F24BFC14305E016EB430F0CBF614653
:101CB0004CEA0551F0BD0000400D491840EA812072
:101CC0000CD2490DA1F58061491C40F0004005DBB4
:101CD000D1F11F0154BFC840C017704700207047A2
:101CE000014648B1B0FA80F18840C91CC1F5846151
:101CF000090501EBD02140057047012000F0B6B87E
:101D000070470000841A71EB030604D26E40001B7A
:101D1000B141121973414FF4001C1CEB410F34BF49
:101D20007CEB430682E00C0DA4EB1356362E7BDCD5
:101D3000012E45EAC32341DC43EA525312BFD202CB
:101D400092025B08240545EAC12141EA5051D2EBD9
:101D5000C020994125D407D1B0FA80F610FA06F1D7
:101D600062D00020203608E0B1FA81F6B140C6F119
:101D7000200220FA02F21143B0404FEAF474B4EBAF
:101D8000465434F001064FEA74040AD8D6F500161A
:101D9000760D04F00044F04061FA06F25040F14044
:101DA0004840C00A40EA415021F0004128BF5FEAA4
:101DB000500550F1000044EBD12135E0DB0A45EA43
:101DC000C121C90AB6F120050EDD42EA0242120C19
:101DD000C5F1200603FA06F6EB4042EA06056D421D
:101DE000984161F100010DE062FA06F5F2405540BC
:101DF00063FA06FC82EA0C02F3405A406D429041BD
:101E000061EB030111F4801F05D1641E620502D04D
:101E10006D004041494121F48011430875F10043B0
:101E200050F1000041EB045170BC70471CEB410FB6
:101E300015D223F0004352EA43060BD04FEA4C0C74
:101E4000BCEB410F04D80C0D661E342EB7DDEBE75A
:101E5000801A994150EA410608BF0021E4E708BF13
:101E60001CEB430F28BF6FF00001DDE780B5AFF337
:101E70000080024A11001820ABBEFBE726000200DA
:101E80002DE9F8478BB000F041FC00F0D5F900F0E7
:101E900046FB00200090DFF8CC07016841F4800188
:101EA0000160026802F48002009200220099009210
:101EB0000021036843F400130360006800F400107D
:101EC000009000980C2000F057FC0C2000F071FCF2
:101ED00000220021382000F04FFC382000F069FC7F
:101EE000002200213A2000F047FC3A2000F061FC7B
:101EF00000F06DFA00F0AFFA00F086F90FF2DC7036
:101F00000021D0E90045CDE900454FF08040DFF8E1
:101F1000584703912060059100206060A060206117
:101F2000A06106910320029007910120049008907F
:101F300009910A914FF6FF75E56002A9204600F06D
:101F4000C7FC00F081FA00F05FF90FF29870DFF83B
:101F50001C17D0E9002300206064A0642065A06500
:101F6000216403200290CDE9002300210120039188
:101F70000490059106910791089009910A91E564F2
:101F800002A904F1400000F0A3FC002000900190A1
:101F9000694604F1400000F0F3FF20686FF0010192
:101FA0000161016841F0040101602421C26842F02E
:101FB0000102C26002A801F02DF80FF23070DFF8C4
:101FC000B01604F18405D0E900230020C4F8801085
:101FD00028606860A860E860686100F019F904F1A1
:101FE000800602A9304600F073FC00F01FF900F0F3
:101FF000C7FF00F009F90FF2FC60DFF87816D0E9AE
:1020000000230020E96328646864A864E8646865C4
:1020100000F0FEF804F1C00602A9304600F058FCBA
:1020200000F004F904F5827600F0AAFF0FF2CC600C
:10203000DFF84416D0E900235320306000207060A0
:102040004CF25030B060CDE900230020E9677061A8
:1020500004F58075284600F0D7FB00200090019021
:102060006946284600F08CFFDFF81056DFF81006AE
:10207000286004F5A0774FF4E13068600020A86084
:10208000E86028610C2068610020A861E8612846AA
:1020900000F0C4FF07A800F02FFA684600F0D1F95D
:1020A000DFF8E005F06340F28F6030640020706478
:1020B00040F2CF70B0640020F06480207065384634
:1020C00000F0A2FB4FF48050079007A9384600F0BB
:1020D0009FFD384600F0CBFB602000F0A1FA049190
:1020E00000226946384600F01FFD002001900422BE
:1020F0006946384600F018FD384601F0E4FA00F071
:10210000E9F8684600F09DF9DFF87C05F06704F512
:10211000C27600207060F06040F2F7178020706196
:1021200040F2E73804F5C07A3760C6F808805046B8
:1021300000F06AFB504600F09AFB6020009040F2ED
:10214000F319002002900490CDF804900022694613
:10215000504600F0E9FC504601F0B5FA684600F040
:1021600070F9DFF82805F06304F5E074002070646E
:10217000F064376480207065C6F84880204600F01F
:1021800043FB204600F073FB60200090CDF80490E4
:102190000020029004900022694600F0A9F9204630
:1021A00001F091FA00F0C1F8DFF8E40428644FF47C
:1021B000165068640020A864E86428650C206865EF
:1021C0000020A865E86505F1400000F027FF002227
:1021D00000211C2000F0D0FA1C2000F0EAFA0022B6
:1021E00000211D2000F0C8FA1D2000F0E2FA0022B4
:1021F0000021372000F0C0FA372000F0DAFA01F0B1
:10220000EBFB01F0F7FBFEE702A8242100F002BF80
:10221000CDE9002301200021029003910490059153
:1022200006910791089009910A917047002000904B
:10223000019069463046704780B592B006A83021BB
:1022400000F0E8FE01A8142100F0E4FE0020009058
:10225000DFF84004016841F080510160002100680E
:1022600000F0805000900098DFF82C0400910121CC
:10227000026842F4804202604FF48032006800F449
:10228000804000900098069102200C904FF480014D
:102290000D9108200E904FF4A8710F91022010901C
:1022A00004210792119106A801F0C0FB0F200190B4
:1022B00002210020029103904FF4A0514FF480506E
:1022C00004910590052101A801F028FD01F0ABFD66
:1022D00013B000BD38B584B000F00DF94FF4803074
:1022E000DFF8B843DFF8B85300F058F8002084F85E
:1022F00030006061204601F0F3FD022000F045F857
:10230000032000F05DF80420032100F05AF80520B6
:10231000042100F056F80620052100F052F80720AD
:10232000062100F04EF808202AE038B584B000F00D
:10233000E2F84FF48030DFF86C43DFF86C5300F0C4
:102340002DF8012084F8300000206061204601F063
:10235000C7FD092000F019F80A2000F031F80B2021
:10236000032100F02EF80C20042100F02AF80D20A3
:10237000052100F026F80E20062100F022F80F209B
:10238000072100F01EF805B030BD009001210720A4
:10239000019102906946204601F0CABD6060256047
:1023A0000020A060012020612076002084F8200019
:1023B000E062BE48A0620020E0600720E061704754
:1023C0000221009001912046694601F0B1BDD8B5C7
:1023D00095B011A800F090F80FF2F8240AA800F0C8
:1023E0002CF802A8202100F015FEB14CB14800F0F5
:1023F00086F800F075F8204600F039FA00F024F86D
:1024000060200A9040F2F31100200B910C900D9087
:102410000E900F901090002200F069F8042200F056
:1024200066F800204FF4005102900390049005904C
:1024300006900791099002A94AE0D4E90067CDE926
:1024400000671C2100F0E6BD002000900190694665
:10245000204600F095BDD8B595B011A800F04CF815
:102460000FF2A02402A8FFF7E8FF09A8202100F03E
:10247000D1FD914C914800F042F800F031F820462F
:1024800000F0F5F9204600F0CCF9FFF7DDFF602001
:10249000029040F2F3110020039104900590069001
:1024A00007900890042202A900F022F80020029070
:1024B000082202A9204600F012FB00204FF4005130
:1024C00009900A900B900C900D900E91109009A914
:1024D000204600F074FD204601F0F5F816B0D0BD9E
:1024E0004FF48050119011A9204600F091BB0AA929
:1024F000204600F019BB6846102100F08BBD20601B
:10250000102060600020A06040F2E730E060002012
:10251000206160618020A061204600F075B970B52F
:1025200086B06846142100F075FD00244D48644DC6
:10253000644E05940168644C41F01001016002682A
:1025400002F010020592002205990592036843F0FB
:1025500080030360016801F0800100F05CF843F043
:1025600004030360016801F0040100F054F843F033
:1025700001030360016801F0010100F04CF843F031
:1025800002030360016801F00201059105990592BB
:102590000721036843F008030360006800F00800A7
:1025A00005900598204601F0BAFE00227F212846BA
:1025B00001F0B5FE0022C021304601F0B0FE072038
:1025C00000F033F8204601F0D1FD4FF4604000F0F8
:1025D00027F82046694601F0C9FD4FF4806000F0FD
:1025E0001FF83046694601F0C1FD4FF4C06000F0AD
:1025F00017F82846694601F0B9FD7F2000F015F86C
:10260000284601F0B3FDC02000F00FF8304601F07D
:10261000ADFD06B070BD0591059905920368704740
:10262000002100900191029170470090012100204B
:102630000191029003906946704701B54FF6FF7310
:10264000012269460D4800F025FD009802BD0020DA
:102650001E4901F1080252F820200A54401C0728A4
:10266000F7DB704730380240D800002000040040FB
:1026700000080040000C004000140040D802002078
:10268000001001400040014000440140004801406A
:10269000004800404038024000700040CC04002058
:1026A0000020014014050020002101400100000F1E
:1026B0005C050020000001409C0500200004014052
:1026C000000C02400004024000100240DC05002023
:1026D0007047000000000000000000000000000043
:1026E00000000000000000000000000000000000EA
:1026F00000000000000000000000000000000000DA
:1027000000000000000000000000000080B50B4841
:10271000016841F400710160026842F48062026065
:10272000016841F480710160032000F018F8002076
:1027300001F012FE00F0FCFD002002BD003C024052
:102740000901020081B002D42948815405E02948DA
:1027500002F00F02104400F8041C01B07047264A32
:1027600013684FF6FF0100020B4000F4E0601843CD
:10277000224908431060704738B51F4B1C68C4F3EA
:102780000223C3F10704052C28BF04241D1D072DB7
:1027900034BF0023DB1E012505FA04F4641E21402A
:1027A000994005FA03F35B1E1A401143BDE834401B
:1027B000C6E7010007D4012200F01F01104B8A4038
:1027C000400943F82020704710B5401EB0F1807FCB
:1027D00001D3012010BD0B4C60600F214FF0FF3082
:1027E000FFF7AEFF0022A26007202060002010BD8E
:1027F00000E400E018ED00E00CED00E00000FA0558
:1028000000E100E010E000E038B5040001D1012053
:1028100032BD00F051F818B900F04AF800F045FE5A
:102820000BE038B5040001D1012032BD00F044F8BE
:1028300018B900F03DF801F0AFFD02206870211DCD
:10284000206800F049FA01206870002032BD03D1F1
:10285000416C41F400414164816801F0070106299F
:1028600003D0016841F001010160002016BD38B5B8
:10287000040001D1012032BD00F01EF818B900F0AB
:1028800017F801F08AFDD8E71CB500F007F800F052
:102890000AF81CBFDFF8C4108842D8E704460122BA
:1028A000206800F05EBB2068DFF8B41088427047F3
:1028B000002129702046704704F13C056878704774
:1028C000C16001223068016841F001010160704778
:1028D000F8B504000E4601D10120F2BDFFF7ECFF70
:1028E00018B9FFF7E5FF00F03BFE02206870216891
:1028F000DFF8B0038A6802408A60211D206800F07A
:10290000EBF92168DFF8A0038A688F690B6A07403A
:10291000B0680743B06947EA0027DFF89003074033
:10292000F0680743F06947EA0027306947EA001773
:10293000306A47EA0037706823F0AA0303437069DE
:1029400043EA0013306802438A60206887610120EF
:1029500021680B6268700020F2BD00000004014095
:102960000000014010B5044609B1042901D101223B
:1029700003E000F00BF801220421206800F0F1FAD6
:10298000FFE72068FFF79FFF002010BD20680122AD
:10299000002100F0E6BA10B50446206801698A07F4
:1029A00015D5C1688A0712D56FF0020202610121B4
:1029B0002177806910F0030F204602D001F0EEFC71
:1029C00003E001F0ECFC00F087F80020207720689D
:1029D00001694A0715D5C1684A0712D56FF004028C
:1029E000026102212177806910F4407F204602D0E5
:1029F00001F0D4FC03E001F0D2FC00F06DF80020FF
:102A00002077206801690A0715D5C1680A0712D521
:102A10006FF00802026104212177C06910F0030FF2
:102A2000204602D001F0BAFC03E001F0B8FC00F04F
:102A300053F80020207720680169CA0615D5C168BF
:102A4000CA0612D56FF01002026108212177C06911
:102A500010F4407F204602D001F0A0FC03E001F01A
:102A60009EFC00F039F80020207720680169CA0731
:102A700008D5C168CA0705D56FF00102026120467A
:102A800001F08EFC206801690A0608D5C1680A06B3
:102A900005D56FF080020261204601F033FD206809
:102AA00001694A0608D5C1684A0605D56FF040029B
:102AB0000261204601F027FD206801698A060AD5D7
:102AC000C1688A0607D56FF0200202612046BDE882
:102AD000104001F019BD10BD204601F016BD38B5FB
:102AE00000F13C042378012B01D1022032BD0125E5
:102AF0002570022363704AB1042A0BD0082A0DD036
:102B00000C2A04BF006800F0BDF90AE0006800F07C
:102B10002EF906E0006800F053F902E0006800F0CA
:102B20007FF9657000F0D5B870B500F065F801D197
:102B3000022070BD00F067F832B1042A17D0082ACD
:102B400028D00C2A39D04AE03068294600F00FF925
:102B50003068816941F0080100F04AF821F0040171
:102B6000816131688A69286902438A6137E0306887
:102B7000294600F025F93068816941F4006100F0D0
:102B800037F821F4806100F033F82A6941EA022124
:102B9000816124E03068294600F042F93068C1695B
:102BA00041F0080100F020F821F00401C161316812
:102BB000CA6928690243CA6111E03068294600F0F9
:102BC00061F93068C16941F4006100F00DF821F449
:102BD000806100F009F82A6941EA0221C1610120FF
:102BE00060700020207070BDC1613068C16970479D
:102BF0008161306881697047064606F13C040D46E4
:102C000020780128704701212170022060707047F0
:102C100038B500F056F801D1022032BD01222270F1
:102C2000022060702A68DFF8A40293680340936072
:102C30000868020018BF10282DD0202818BF30289F
:102C400029D0402823D0502816D0602818D07028CA
:102C500003D0B0F5005F07D021E000F02DF8286820
:102C6000816841F0770105E000F026F82868816866
:102C700041F48041816012E000F01AF850210BE02D
:102C8000CA684968286800F048F9602104E000F04B
:102C90000FF8402100E00146286800F050F916E0E6
:102CA00000000000F8BFFFFFFCFCFFFF0303FFFF75
:102CB000CA684968286821E1CB684A688968286839
:102CC00045E1054605F13C042078012870470120C4
:102CD00060700020207032BDF0B57D4C05687D4BE2
:102CE0007D4E7E4FDFF8F8C1A04218BFB0F1804F93
:102CF00007D0604518BFB84203D0B04218BF984211
:102D00000DD14A6825F070051543A04218BFB0F1F7
:102D1000804F17D060451CBFB842B04212D09842D5
:102D20001CBF704A90420DD06F4A90421CBF6F4A40
:102D3000904207D06E4A90421FBF6E4A90426E4A40
:102D4000904203D1CA6825F4407515434A6925F0BD
:102D5000800515430560A0428A68C2620A688262E3
:102D600012BF98420969016301214161F0BDF0B5CC
:102D7000026A574F574E520852000262056A436872
:102D8000846900F079F825F002051543B84218BFB0
:102D9000B04207D1CA6825F008051543B84225F0AE
:102DA000040501D0B04205D14A6923F440731343AE
:102DB0008A69134343608461496841630562F0BDD9
:102DC000F0B5026A424E22F010020262B042056A79
:102DD000436884690A6824F4E64444EA02248A6861
:102DE00025F0200545EA02153A4A18BF904208D15D
:102DF000CF6825F0800545EA0715B04225F040056B
:102E000001D0904206D14E698A6923F4406316438B
:102E100043EA860343608461496881630562F0BDCB
:102E2000F0B5026A2A4E22F480720262056A436893
:102E3000C46900F021F825F4007545EA0225254A09
:102E4000B04218BF904208D1CF6825F4006545EA2A
:102E50000725B04225F4806501D0904206D14E6925
:102E60008A6923F44053164343EA06134360C4615E
:102E70004968C1630562F0BD0A6824F07304144315
:102E80008A68704770B5026A114E22F4805202625D
:102E9000B042046A4268C3690D6823F4E64343EA1A
:102EA00005238D6824F400541CBF0A4EB04244EA46
:102EB000053404D14D6922F4804242EA8512426011
:102EC000C36149680164046270BD00008800FFFFAF
:102ED0000000014000040140000C004000080040D8
:102EE000000400400040014000440140004801400F
:102EF00000180040001C00400020004010B5036A8C
:102F0000046A64086400046223F00A03846924F0FC
:102F1000F00444EA021484612EE010B5036A23F041
:102F2000100303628369046A23F4704343EA0233A3
:102F300024F0A004836144EA0114046210BD826895
:102F400022F07002114341F007018160704710B513
:102F5000846824F47F442143114341EA03218160C2
:102F600010BD10B501F01F01036A01248C40A3437A
:102F7000036202FA01F1036A1943016210BD000005
:102F800070B500F13C031A78012A01D1022070BD0E
:102F900001241C7002225A7004686568A6684A6899
:102FA000096825F070050D43656026F0800600680D
:102FB00016438660012159700020187070BD10B54D
:102FC00090F83C20012A01D1022010BD012380F895
:102FD0003C30CC688A684B6824F44074144324F471
:102FE00080641C430A680B6924F40064144324F4CD
:102FF00080541C434A69C96924F40054144324F4DE
:1030000080440C4301684C64002280F83C2000207E
:1030100010BD0000002201F079BA000038B50400AC
:1030200001D1012032BD00F022F808B900F023F8E8
:1030300000F013F800F024F8FFE7416100F001F818
:1030400032BD2068C16841F40051C1600020686051
:1030500020206870A87000207047242068702068C5
:10306000C16821F40051C160204600F09EB804F10F
:1030700038056878704700212970204600F0F1BBC0
:103080002068016921F4904101612068416921F0C3
:103090002A0170472DE9F843054605F138070C462B
:1030A00078782028164698463CD1002C14BF002E74
:1030B000012038D03878012834D0012139702120FE
:1030C00000217960787001F03BFAAE848146EE848D
:1030D00003E0296814F8010B4860E88C28B3E98CF8
:1030E000481EE8844B46A868CDF80080B0F5805FA4
:1030F0000DD100F024F870B920882968C0F30800C9
:1031000048602869002814BF641CA41CE5E700F08F
:1031100016F80028DDD0032005E02020787000207C
:10312000387000E00220BDE8F283CDF800804B4605
:103130000022402100F005F80028EED0EBE7002245
:1031400080212846FFE72DE9F041069C05460E4602
:1031500090461F46286801683140B1420CBF0120EB
:103160000020404517D114F1010FF3D024B101F034
:10317000E7F9C01B8442EDD22868C16821F4D07100
:1031800000F00CF805F13800202141708170002119
:103190000170032000E00020BDE8F081C1602868D4
:1031A000416949084900416170472DE9F0470446EB
:1031B000642521680A69E06822F4405202430A61EA
:1031C0001926CA6848480240A068024320690243A1
:1031D00060690243E0690243CA604A69A06922F457
:1031E000407202434A61E3694048414AB3F5004FE7
:1031F0003BD1914218BF814210D100F020FE07461A
:1032000000F01DFE804600F01AFE814600F017FE19
:1032100006FB09F9824600F012FE0FE000F007FEFF
:10322000074600F004FE804600F001FE814600F0F3
:10323000FEFD06FB09F9824600F0F9FD61684900D0
:1032400000F058F8DB003233B3FBF5F35B00B2FB60
:10325000F5F203F4F87300F05BF8ED00323564200A
:10326000B5FBF0F000F0070037E0914218BF814253
:103270000ED100F0E4FD074600F0E1FD804600F0CD
:10328000DEFD814600F0DBFD824600F0D8FD0DE05A
:1032900000F0CDFD074600F0CAFD804600F0C7FDF6
:1032A000814600F0C4FD824600F0C1FD06FB09F92D
:1032B0006168890000F01EF81B013233B3FBF5F39F
:1032C000B2FBF5F203F0F00300F022F82D013235E5
:1032D0006420B5FBF0F000F00F002168C3188B608C
:1032E000BDE8F08700000000F369FFFF0014014013
:1032F000001001407743B7FBF1F206FB08F7B7FB7C
:10330000F1F3B9FBF1F7B7FBF5F705FB173370479E
:1033100003EB021306FB0AF74643B7FBF1F2B6FBD9
:10332000F1F06421B0FBF1F005FB102570470000BF
:1033300081B0002000900022DFF83806416841F497
:1033400080414160416801F4804100910099009200
:10335000036843F080530360006800F080500090E1
:10336000009801B070472DE9F84F86B0044601A8D7
:103370001421FFF74FFE2168DFF8FC25DFF8FC95EC
:10338000DFF8FC75DFF8FC0591424FF400354FF48F
:1033900000564FF4006A4FF480684FF4807B25D1CB
:1033A00000210091426942F4807242610022416929
:1033B00001F4807100F075F8036843F001030360C5
:1033C000016801F0010100F06CF8FC2100F059F8EF
:1033D000DFF8B40500F0CAFE012000F049F8DFF87C
:1033E000AC75C7F80090002078602BE0DFF8A025CE
:1033F00091423AD100210091426942F40072426147
:103400000022416901F4007100F04BF8036843F0B9
:1034100004030360016801F0040100F042F83F2159
:1034200000F02FF8DFF86C0500F0A0FE022000F09D
:103430001FF8DFF8647509F1300038604FF0007054
:1034400078600020B860F860C7F81080C7F814A052
:10345000BE61C7F81CB03D627862384601F076F86C
:1034600008B1FFF735F9A763BC6307B0BDE8F08F7B
:103470000190032100200291039001A9384600F039
:1034800075BE036843F0020303600322006800F086
:10349000020000900098019100200390029201A97F
:1034A0007047009100990092704781B00168DFF881
:1034B000EC24DFF8C004914209D100210091426858
:1034C00042F001024260406800F0010044E0DFF891
:1034D000D024914209D100210091026842F02002DB
:1034E0000260006800F0200036E0DFF8B824914266
:1034F00009D100210091426842F002024260406816
:1035000000F0020028E0DFF8A024914209D1002158
:103510000091426842F480324260406800F480309A
:103520001AE0DFF88824914209D100210091426815
:1035300042F400324260406800F400300CE0DFF8F2
:10354000702491420AD100210091426842F4802205
:103550004260406800F480200090009801B07047FD
:1035600038B586B000F078F92268DFF81444DFF847
:103570001804DFF81014B2F1804F24D10022059214
:103580000B6943F001030B6100230A6900F08EF818
:103590000D6845F001050D600A6800F087F84FF4EA
:1035A00000420D6845F002050D600223096801F034
:1035B000020100F046F9694600F0D8FD082000F04D
:1035C0007BF8012026E0DFF8EC339A4227D1002077
:1035D00005900A6942F002020A610022086900F0BF
:1035E00015F900F00AF90598059202220B6843F0DC
:1035F00002030B6000F0F8F8402100F01BF9019283
:1036000004926946DFF88C0300F0B0FD202000F042
:1036100053F80220039104906946204642E0DFF807
:1036200098339A421ED1002005900A6942F00402A4
:103630000A610022086900F00400059005980592CF
:1036400002220B6843F008030B60086800F00800D2
:1036500005904FF4405100F0E6F804926946DFF817
:103660005C031FE0DFF858339A421DD10022059217
:103670000B6943F008030B6100230A6902F008029A
:103680000592059A059303220C6844F001040C602E
:103690000223096801F0010100F0A0F803910193F1
:1036A0000493694600F062FD07B030BD02F00102EC
:1036B0000592059A05937047009002210020019120
:1036C00002900321704738B586B000F0C5F8226833
:1036D000DFF8C832DFF8EC02DFF8A8129A4208D10E
:1036E000002205924FF4706200F06FF800F0A9F824
:1036F00043E0DFF8B032DFF888529A424FF480742A
:103700002CD100F089F80022086800F07FF802222E
:1037100000F073F84FF4804100F08CF804910192AE
:1037200000F067F84FF40040009002210020029062
:10373000039001910320049000F05BF880200221A7
:1037400000900191002003210290039104916946A9
:10375000DFF8405200F04EF800211AE0DFF848325E
:103760009A420CD100220592602200F02EF800F05F
:1037700035F80193032104910393694621E0DFF8B2
:103780002C0282420DD100F047F800F02DF8002104
:103790000598029103910220032100940190049165
:1037A0000DE0834882420ED100F036F8022200F08C
:1037B0001BF84FF4007100F036F8032004906946BE
:1037C000284600F0D3FC07B030BD0B6843F010036F
:1037D0000B600223096801F01001704705910599FB
:1037E0000092002102917047086800F002000590E5
:1037F00070476946284600F0B9BC0B6843F00403E3
:103800000B60086800F004000590704700F00200AB
:103810000590059805927047002005900A6842F0CF
:1038200002020A6070470598009100200290039000
:1038300001927047059800910020032102900391A6
:103840007047059105990092002102910322012100
:103850000491019303927047044668461421FFF7D0
:10386000D9BB70B586B0FFF7F7FF2168564A4548C7
:1038700091421CD100210591426942F0100242613F
:103880000022416901F010010591059905924FF45C
:10389000C061036843F0010303600222006800F086
:1038A000010000F05BF8384800F060FC54E0474A43
:1038B000914251D1002105914FF480750269444E27
:1038C00042F4802202610022016901F48021059105
:1038D00005990592036843F002030360016801F053
:1038E00002010591059905924FF40061036843F0C8
:1038F000080303600222006800F0080000F02EF8C0
:103900001F4800F033FC02200121019002910320A6
:1039100007210390049100956946284800F026FC91
:103920002C483060F5614FF0006070600020B0609E
:10393000F0604FF48060306100207061B0614FF43E
:103940000030306200207062304600F0FFFD08B1A8
:10395000FEF7BEFE6663B46306B070BD05900598C1
:10396000009101200290032107200391049001920D
:103970006946704740380240002001401064024010
:103980000004024030380240000002405C03002086
:103990000021014000080240BC030020000001405B
:1039A0000014004000040140004001400044014078
:1039B000004801400004004000080040000C0240A4
:1039C000000C004000100240001001400048004080
:1039D0001C0400202860024010B5054C0021204640
:1039E000FEF752FF2046BDE810400421FEF74CBF11
:1039F0001802002080B53C210848FEF7B3FF3C21A7
:103A00000748FEF7AFFF3C210648FEF7ABFFBDE8D5
:103A100004403C210448FEF7A5BF0000D800002068
:103A20001801002058010020980100202DE9F843DA
:103A3000040017D02078B54EC10741D5B06800F01A
:103A40000C00042807D0B06800F00C0008280BD147
:103A50007068410208D53168880331D56068002854
:103A600040F0B68001204FE16068B0F5803F06D09D
:103A7000B0F5A02F316807D141F480213160306862
:103A800040F48030306006E021F4803131603268EB
:103A900022F480223260606868B100F051FD054672
:103AA0003168880300F1948000F04AFD401B6528CE
:103AB000F6D3032028E100F043FD0546306881037A
:103AC00040F1868000F03CFD401B6528F6D3F0E70E
:103AD00000F036FD401B022840F2A780E9E7E068CD
:103AE00070B10121396000F02BFD05463068810777
:103AF00000F1CB8000F024FD401B0228F6D9D8E766
:103B0000386000F01DFD05463068810763D500F080
:103B100017FD401B0228F7D9CBE7086000F010FD25
:103B20000546706F810775D500F00AFD401B02281D
:103B3000F7D9BEE70528306F06D140F004003067A2
:103B4000306F40F0010005E0400840003067306F02
:103B500020F00400306741F28938A06868B100F0B5
:103B6000EFFC8146306F810700F19C8000F0E8FC9B
:103B7000A0EB09004045F5D39BE700F0E1FC81464E
:103B8000306F810740F18E8000F0DAFCA0EB090075
:103B90004045F5D38DE700F0D3FC401B022840F2EE
:103BA000968086E700F0CCFC001B022840F2A7803C
:103BB0007FE70020386600F0C3FC044630688101CE
:103BC00040F1A18000F0BCFC001B0228F6D970E790
:103BD00020784F4F81071BD5B06810F00C0F09D02B
:103BE000B06800F00C0008287FF479AF70684102DB
:103BF0003FF575AF3168880703D5E06801287FF489
:103C000031AF3168206921F0F80141EAC00131602B
:103C1000217808070DD560693E4900283FF47DAF43
:103C200001220A6000F08CFC0546706F81077FF569
:103C30004FAF217848073AD5306C0025C1000AD42F
:103C400000950125306C40F080503064306C00F0FD
:103C5000805000900098DFF8C080D8F80010C805A8
:103C60001BD4D8F8000040F48070C8F8000000F0C1
:103C700067FC8146D8F80010C8050ED400F060FC3F
:103C8000A0EB09000228F5D913E73068216920F07C
:103C9000F80040EAC1003060BAE7A06801287FF46C
:103CA00049AF4DE71DB1306C20F080503064A06901
:103CB00048B3B16801F00C0108293FF4D3AE0228E3
:103CC0007FF477AF0020386600F03AFC0546306894
:103CD00081013FF560AFE169206AA26A0143606A31
:103CE000520841EA8011521EE06A41EA024141EA6B
:103CF000006171600121396600F022FC04463068E1
:103D000081017FF54FAF0020BDE8F283003802400B
:103D100000004742800E4742007000402DE9F84302
:103D200004000F4677D0504E306800F00F00B842C4
:103D300002D200F072F86ED120684C4D810712D586
:103D4000400703D5A86840F4E050A8602178080730
:103D500003D5A86840F46040A860A968A06821F075
:103D6000F0010143A9602078C1074CD560680128A3
:103D700002D129688A0305E0022818BF032803D16D
:103D800029688A0103D446E02A68910743D5A968C7
:103D9000890840EA8100A86041F2893900F0D0FB2F
:103DA0008046A868616800F00C00B0EB810F2AD053
:103DB00000F0C6FBA0EB08004845F2D3032020E04A
:103DC0002078410705D5A968E06821F4E051014356
:103DD000A9602078010706D5A868216920F4604011
:103DE00040EAC100A86000F04FF8AA682049C2F379
:103DF0000312895C1F4AC8401060002000F0ACFA32
:103E00000020BDE8F283306800F00F008742D7D26F
:103E100000F003F8D4D00120F3E73770316801F0E7
:103E20000F01B942704715490120086070471148D9
:103E3000114A006813681249C3F3822206E00D4854
:103E40000D4A006813680E49C3F34232895CC840CA
:103E5000704710B50B4C2068010603D500F0DAFC62
:103E60008020A07010BD0000003C024000380240DD
:103E7000B04900080C000020083802404C004742BE
:103E8000784B00080C38024018B5124C606800F0FE
:103E90000C00042802D0082802D019E00E4812BDF8
:103EA00000232268206841022068C0F388104CBFBC
:103EB00009490A4902F03F02A1FB0001FDF746FA59
:103EC0002168C1F30141491C4900B0FBF1F012BD6A
:103ED000024812BD0438024000127A000024F400A7
:103EE00070B5044600250CB9012070BD04F13C06F4
:103EF000706820B92046FFF736FAB56035707068F3
:103F0000C10610D4706820F4885040F00200706040
:103F1000204600F0A5F8B560706820F0020040F07F
:103F20000100706000E0012500203070284670BD5F
:103F300078B502460020009092F83C30012B01D168
:103F4000022072BD012082F83C0007240B68106833
:103F50000A2B12D30A3BC56803EB43039C4025EAB6
:103F60000404C460C3680D688C68A5F10A0606EBFA
:103F70004606B4402343C3600FE0056903EB4303E7
:103F800004FA03F325EA0303036103690D688C68EF
:103F900005EB4505AC40234303611F244B68072B09
:103FA0000CD25B1E456B00F055F84463436B4D68C3
:103FB0000C886E1E00F049F843631BE00D2B0CD2F9
:103FC000DB1F056B00F046F80463036B4D680C883B
:103FD000EE1F00F03AF803630CE00D3BC56A00F0F9
:103FE00039F8C462C36A4D680C88A5F10D0600F06B
:103FF0002CF8C362594B984222D10B685648122BB9
:1040000003D1046844F4800404600B68102B18BFCB
:10401000112B15D1036843F40003036008681028CE
:104020000ED150494E4C0B68B3FBF4F40A204443C4
:10403000009402E00099491E009100980028F9D1EF
:10404000002182F83C10002072BD06EB8606B440C9
:104050002343704703EB83039C4025EA0404704725
:104060003D4A116821F440311160136841680B43E7
:1040700013600268516821F48071516051680369CE
:1040800041EA03215160516821F040715160536849
:1040900081680B435360916821F4006191609368DB
:1040A000C1680B439360816A2F4B994210D093688B
:1040B00023F0706393609368816A0B439360916807
:1040C00021F0405191609368C16A0B43936007E00F
:1040D000916821F070619160916821F04051916088
:1040E000916821F0020191609168037E41EA4301E9
:1040F000916090F8201069B1536843F400635360F5
:10410000516821F4604151605168436A5B1E41EA85
:10411000433102E0516821F400615160D16A21F419
:104120007001D162D16AC3695B1E41EA0351D16259
:10413000916821F400719160916890F8303041EA03
:1041400043219160916821F4806191609168406998
:1041500041EA802191607047042301400020014022
:1041600040420F000C0000200100000F2DE9F84F25
:104170004FF0000E6D4A6E4BDFF8B8814FF00F091B
:1041800006468A460121DAF8004001FA0EF10C4099
:104190008C4240F0BC80DAF80450022D18BF122D7A
:1041A0004FEA8E0012D14FEADE0506EB850C00F0D7
:1041B0001C05DCF8207009FA05FB27EA0B07DAF882
:1041C00010B00BFA05F53D43CCF820504FEA4E0CE9
:1041D000032537689AF804B005FA0CF5ED430BF0A7
:1041E000030B2F400BFA0CFB4BEA07073760DAF89A
:1041F0000470012F18BF022F03D0112F18BF122FE8
:1042000013D1B768DAF80CB02F400BFA0CFB4BEA6D
:104210000707B760776827EA0101DAF80470C7F387
:10422000001707FA0EF739437160F1680D40DAF8AC
:10423000081001FA0CF12943F160DAF80410C90002
:1042400065D50025009500F00C00D8F8001041F469
:104250008041C8F8001009FA00F7D8F8005005F4BA
:104260008045009500994FEA9E0153F8215025EAB8
:104270000707314DAE4208BF002522D02F4DAE4278
:1042800008BF01251DD02E4DAE4208BF022518D013
:104290002C4DAE4208BF032513D02B4DAE4208BFB4
:1042A00004250ED0294DAE4208BF052509D0284D62
:1042B000AE4208BF062504D0264DAE420CBF0725EE
:1042C000082505FA00F0384343F82100E04311685F
:1042D000DAF804500140ED0348BF214311605168F2
:1042E000DAF804500140AD0348BF214351609168A2
:1042F000DAF804500140ED0248BF21439160D168D3
:104300000140DAF80400800248BF2143D1600EF179
:10431000010EBEF10F0F7FF635AFBDE8F18F81B012
:1043200002B90904FFE7816101B07047003C014018
:1043300008380140443802400000024000040240B6
:1043400000080240000C024000100240001402402D
:1043500000180240001C024038B50D4D0D4A297866
:1043600004464FF47A70B0FBF1F11068B0FBF1F045
:10437000FEF72AFA50B9102C08D2002221464FF03D
:10438000FF30FEF7F9F9AC60002032BD012032BDEC
:10439000000000200C0000207047704770477047F5
:1043A00070B5304B30491C68B1F900202568EB0628
:1043B0004CBF521E521C2D4B0A801C68B1F90220C2
:1043C0002568EB064CBF521E521C294B4A801C68C4
:1043D000B1F904202568EB064CBF521E521C254B38
:1043E0008A801C68B1F906202568EB064CBF521E76
:1043F000521CCA8000682049884230D1FEF727F954
:104400005FF0000421A51D4E325D611C284600F0BE
:1044100003FA641C062CF7DD11A4204600F0FCF919
:1044200000F00EFA00F033FA1548164902780978C0
:104430001DA000F0F1F9204600F0EEF912480168E5
:1044400023A000F0E9F9204600F0E6F900F05DFA5B
:10445000BDE8704010F1010123A000F0DDB970BD8E
:104460000A000000D80000201006002018010020DB
:10447000580100209801002000140040DC050020B5
:1044800009060020080600200C060020B5DA256485
:10449000B8F6B4ABB8D0C6F7B5C4B2C9D1F9D6B581
:1044A000A3BA2564200A0000C7B0CBC4C2B7E3D0CA
:1044B000D6B5A3BA2564203B200ABAF3C8FDC2B71B
:1044C000E3D0D6B5A3BA202564200A20000000005E
:1044D000B8F7C2B7B6FED6B5BBAFC7E9BFF6A3BA49
:1044E0002564200A00000000BADACFDFCEBBD6C3B5
:1044F000A3BAB5DA2564C2B7B4ABB8D0C6F7200A00
:1045000000000000704770477047704700B500BF5B
:10451000130096469446103928BFA0E80C50FAD8EC
:104520005FEA417C28BF0CC048BF40F8042BC90794
:1045300028BF20F8022B48BF00F8012B00BD000067
:1045400001484068704700BF000000207CB5044669
:10455000FFF7F6FF06460CB9012076BD04F13405DD
:10456000002028700220687000F031F92168086886
:10457000C20720D5FFF7E4FF801B0628F6D32020D2
:104580002862032015E0B0F5005F09D1032E42D860
:10459000DFE806F00C0A0C02B1F1C07F3BD105E068
:1045A000022E03D9F61E36D1C80134D54020286228
:1045B0000120687076BD0A68DFF80002024060687A
:1045C0000243A0680243E068024320690243606935
:1045D0000243A0690243E0690243206A0243606A21
:1045E000042803D1E36A206B03431A430A6023685B
:1045F0005A69606AD208042840EAC2020BD1A66A4E
:10460000E16A324339B1A0690028BCD1002E18BF3D
:10461000022EC9D0C0D35A61204600F0E3F8A96A3F
:104620003F228A40826000202862012068700020BA
:1046300076BD2DE9FC41044604F1340600206049B2
:1046400000904FF41650776A0A683D68B2FBF0F8A4
:10465000B06A082100F0B7F80ED02068026853074E
:104660000AD5036823F004030360B06A8140B9608F
:10467000306A40F001003062B06A25FA00F1C907E3
:104680000BD521684A69110607D5012101FA00F00E
:10469000B860306A40F002003062042100F092F805
:1046A00008D021680A68930704D5B860306A40F0E2
:1046B00004003062102100F085F81BD021680A68E0
:1046C000130717D5B860206801684A0307D500684A
:1046D00001030BD5716969B1204688470AE001687A
:1046E000CA0503D4026822F008020260F16809B129
:1046F00020468847B06A202100F065F841D0216843
:104700000A68D3063DD5B86020687178052920D1A4
:10471000026822F0160202602068416921F08001DF
:104720004161F168002904BF7069002804D0206845
:10473000016821F0080101603F22B06A8240BA603E
:1047400000F04BF8F169002935D02046BDE8FC4166
:10475000084701684A0307D5006801030DD4316991
:1047600079B1204688470CE00168CA0505D4026883
:1047700022F01002026000F030F8B16809B1204662
:104780008847306AB8B1316AC8070ED50520707005
:1047900000F01DF820680099491C8845009102D35B
:1047A0000168CA07F7D400F018F8B16919B12046BA
:1047B000BDE8FC410847BDE8F38100003F8010F0F0
:1047C0000C000020B06A01FA00F005427047206832
:1047D00001684908490001607047002030700120DD
:1047E0007070704781B0016801F0FF02103A182321
:1047F000B2FBF3F205A39B5CC365890A8902042A14
:1048000028BF091D8165084601B0704700061016D3
:1048100000061016704700000EB4C0B5024603A88B
:1048200000210190009101AB0121044878440C3033
:10483000FBF7AAFC06BC5DF810FB00BFFF020000FE
:1048400030B5434801780A460023C45C944228BF2F
:1048500022465B1C042BF8DB03790024055DA9428A
:1048600028BF2946641C072CF8DB0424055D9D4203
:1048700028BF2B46641C072CF8DB881800EBD0708F
:1048800034494010401F5B0808724B7230BDF0B5D0
:1048900030492F4A0C7A0023012000F028F8042B1D
:1048A0008D72FADB4C7A042300F021F8062B8D720E
:1048B000FADD4B780A788C780A2043439A186420F2
:1048C00010FB0422CB780C794FF47A7010FB032292
:1048D00042F2107010FB04224B791F488C7900FBC8
:1048E00003221E4800FB0422887ACA60F0BDD75C10
:1048F0008D7ABC4200FA03F602D3C854354302E075
:10490000B5430026CE545B1C704710B50020002133
:104910000022104B54B21C5D012C14D0521C54B216
:10492000072CF7DB062254B21C5D012C0DD0521E61
:1049300054B2002CF7D540B240FA81F000EBD070B1
:10494000C005000E10BD1146ECE71046F3E700006D
:10495000DC05002000060020A086010040420F0078
:104960000E48016841F47001016000220C4908689A
:1049700040F0010008608A600A480A6802400A6044
:10498000002209484860086820F480200860CA6056
:104990004FF00060054908607047000088ED00E0B6
:1049A00000380240FFFFF6FE1030002408ED00E062
:1049B00000000000000000000102030406070809CF
:1049C000FFF747BAFEE7FEE7FEE7FEE770477047EE
:1049D000704700F01FB80948FFF72BBE0848FDF7E5
:1049E000DABF0848FDF7D7BF0748FDF7D4BF07482F
:1049F000FFF71FBE0648FFF71CBE00001C04002086
:104A0000D800002018010020D80100205C030020FD
:104A1000BC03002002484168027889184160704751
:104A20000000002019E050F8042BD30744BFA9F17F
:104A300001039A18091F0023042942F8043BF9D204
:104A40005FEA817C134604D54FF0000CA2F800C049
:104A50009B1CC90744BF0021197050F8041B002992
:104A6000E1D1704730B5016884684218416802EBB3
:104A70005103C9070BD54C4409E012F9011B12F888
:104A8000015B002904F8015B05D5491CF9D19A4264
:104A9000F3D10C3030BD491EF1D5F8E710B5074908
:104AA00079441831064C7C44163404E00A68081D29
:104AB000114488470146A142F8D110BD2C000000E6
:104AC000480000004EF68851CEF20001086840F41C
:104AD00070000860BFF34F8FBFF36F8F4FF000700F
:104AE000E1EE100A704700003DFFFFFF44050000A3
:104AF000D8000020000000006DFFFFFFB60100009D
:104B0000040100000000002000F00DF8002801D092
:104B1000FFF7C4FFAFF300800020AFF30080FDF784
:104B2000AFF900F002F80120704700F001B8000072
:104B300007463846FDF79AF9FBE738B504460D46B7
:104B4000284600F005F8A84218BF0024204632BDD0
:104B50000149FDF772BD00BF900000200148804769
:104B600001480047614900086D4B0008AFF3008021
:104B7000FFF7A8FFFFF7C8FF0000000001020304D1
:104B800000002E004300FFF7FEBFFFF7FEBFFFF758
:104B9000FEBFFFF7FEBFFFF7FEBFFFF7FEBFFFF749
:104BA000FEBFFFF7FEBFFFF7FEBFFFF7FEBFFFF739
:104BB000FEBFFFF7FEBFFFF7FEBFFFF7FEBFFFF729
:104BC000FEBFFFF7FEBFFFF7FEBFFFF7FEBFFFF719
:104BD000FEBFFFF7FEBFFFF7FEBFFFF7FEBFFFF709
:104BE000FEBFFFF7FEBFFFF7FEBFFFF7FEBFFFF7F9
:104BF000FEBFFFF7FEBFFFF7FEBFFFF7FEBFFFF7E9
:104C0000FEBFFFF7FEBFFFF7FEBFFFF7FEBFFFF7D8
:104C1000FEBFFFF7FEBFFFF7FEBFFFF7FEBFFFF7C8
:104C2000FEBFFFF7FEBFFFF7FEBFFFF7FEBFFFF7B8
:104C3000FEBFFFF7FEBFFFF7FEBFFFF7FEBFFFF7A8
:104C4000FEBFFFF7FEBFFFF7FEBFFFF7FEBFFFF798
:104C5000FEBFFFF7FEBFFFF7FEBFFFF7FEBFFFF788
:104C6000FEBFFFF7FEBFFFF7FEBFFFF7FEBFFFF778
:104C7000FEBFFFF7FEBFFFF7FEBFFFF7FEBFFFF768
:104C8000FEBFFFF7FEBFFFF7FEBFFFF7FEBFFFF758
:104C9000FEBFFFF7FEBFFFF7FEBFFFF7FEBFFFF748
:104CA000FEBFFFF7FEBFFFF7FEBFFFF7FEBFFFF738
:104CB000FEBF0001F9000010FC001E24F400804B30
:104CC0000008804B0008804B0008804B0008804B98
:104CD0000008804B0008804B0008F8FF0B824B0057
:104CE00008804B0008804B0008FAFF060000844B48
:104CF000000801FD000310000020D800033111005E
:104D000008FC00041F11000801F90013020401014E
:104D10007C040020CC0400207C0400207C040020C3
:104D2000FC00037C040020FC0007D4000020C0002D
:044D30000020E0007F
:0400000508004B6D37
:00000001FF
